{
  "_format": "hh-sol-artifact-1",
  "contractName": "GroupManager",
  "sourceName": "contracts/GroupManager.sol",
  "abi": [
    {
      "inputs": [
        {
          "internalType": "address",
          "name": "semaphoreAddress",
          "type": "address"
        }
      ],
      "stateMutability": "nonpayable",
      "type": "constructor"
    },
    {
      "inputs": [],
      "name": "ElectionAlreadyRegistered",
      "type": "error"
    },
    {
      "inputs": [],
      "name": "NotRegistered",
      "type": "error"
    },
    {
      "anonymous": false,
      "inputs": [
        {
          "indexed": true,
          "internalType": "uint256",
          "name": "electionId",
          "type": "uint256"
        },
        {
          "indexed": true,
          "internalType": "uint256",
          "name": "groupId",
          "type": "uint256"
        },
        {
          "indexed": false,
          "internalType": "uint256",
          "name": "externalNullifier",
          "type": "uint256"
        }
      ],
      "name": "ElectionGroupRegistered",
      "type": "event"
    },
    {
      "anonymous": false,
      "inputs": [
        {
          "indexed": true,
          "internalType": "uint256",
          "name": "electionId",
          "type": "uint256"
        },
        {
          "indexed": true,
          "internalType": "uint256",
          "name": "groupId",
          "type": "uint256"
        },
        {
          "indexed": false,
          "internalType": "uint256",
          "name": "identityCommitment",
          "type": "uint256"
        }
      ],
      "name": "VoterCommitmentAdded",
      "type": "event"
    },
    {
      "inputs": [
        {
          "internalType": "uint256",
          "name": "electionId",
          "type": "uint256"
        },
        {
          "internalType": "uint256",
          "name": "identityCommitment",
          "type": "uint256"
        }
      ],
      "name": "addCommitment",
      "outputs": [],
      "stateMutability": "nonpayable",
      "type": "function"
    },
    {
      "inputs": [
        {
          "internalType": "uint256",
          "name": "",
          "type": "uint256"
        }
      ],
      "name": "electionGroups",
      "outputs": [
        {
          "internalType": "uint256",
          "name": "groupId",
          "type": "uint256"
        },
        {
          "internalType": "uint256",
          "name": "externalNullifier",
          "type": "uint256"
        }
      ],
      "stateMutability": "view",
      "type": "function"
    },
    {
      "inputs": [
        {
          "internalType": "uint256",
          "name": "electionId",
          "type": "uint256"
        }
      ],
      "name": "getExternalNullifier",
      "outputs": [
        {
          "internalType": "uint256",
          "name": "",
          "type": "uint256"
        }
      ],
      "stateMutability": "view",
      "type": "function"
    },
    {
      "inputs": [
        {
          "internalType": "uint256",
          "name": "electionId",
          "type": "uint256"
        }
      ],
      "name": "getGroupId",
      "outputs": [
        {
          "internalType": "uint256",
          "name": "",
          "type": "uint256"
        }
      ],
      "stateMutability": "view",
      "type": "function"
    },
    {
      "inputs": [
        {
          "internalType": "uint256",
          "name": "electionId",
          "type": "uint256"
        },
        {
          "internalType": "uint256",
          "name": "externalNullifier",
          "type": "uint256"
        }
      ],
      "name": "registerElectionGroup",
      "outputs": [
        {
          "internalType": "uint256",
          "name": "groupId",
          "type": "uint256"
        }
      ],
      "stateMutability": "nonpayable",
      "type": "function"
    },
    {
      "inputs": [],
      "name": "semaphore",
      "outputs": [
        {
          "internalType": "contract ISemaphore",
          "name": "",
          "type": "address"
        }
      ],
      "stateMutability": "view",
      "type": "function"
    }
  ],
  "bytecode": "0x60a060405234801561001057600080fd5b506040516104ad3803806104ad83398101604081905261002f91610040565b6001600160a01b0316608052610070565b60006020828403121561005257600080fd5b81516001600160a01b038116811461006957600080fd5b9392505050565b60805161041561009860003960008181606c0152818161018f01526102e301526104156000f3fe608060405234801561001057600080fd5b50600436106100625760003560e01c80637b5d2534146100675780637d1d3dba146100ab57806399a29d74146100cc578063c3113b79146100ec578063d891f51214610101578063ef1e68b41461013d575b600080fd5b61008e7f000000000000000000000000000000000000000000000000000000000000000081565b6040516001600160a01b0390911681526020015b60405180910390f35b6100be6100b936600461038b565b610160565b6040519081526020016100a2565b6100be6100da3660046103ad565b60009081526020819052604090205490565b6100ff6100fa36600461038b565b61027b565b005b61012861010f3660046103ad565b6000602081905290815260409020805460019091015482565b604080519283526020830191909152016100a2565b6100be61014b3660046103ad565b60009081526020819052604090206001015490565b6000828152602081905260408120541561018d5760405163ef738af160e01b815260040160405180910390fd5b7f00000000000000000000000000000000000000000000000000000000000000006001600160a01b031663575185ed6040518163ffffffff1660e01b81526004016020604051808303816000875af11580156101ed573d6000803e3d6000fd5b505050506040513d601f19601f8201168201806040525081019061021191906103c6565b6040805180820182528281526020808201868152600088815280835284902092518355516001909201919091559051848152919250829185917f55a105ed523329c80c8e3cd5ff4f0837b2b8d44b86384473ecbdb6af2511afa0910160405180910390a392915050565b600082815260208181526040808320815180830190925280548083526001909101549282019290925291036102c35760405163aba4733960e01b815260040160405180910390fd5b8051604051631783efc360e01b81526004810191909152602481018390527f00000000000000000000000000000000000000000000000000000000000000006001600160a01b031690631783efc390604401600060405180830381600087803b15801561032f57600080fd5b505af1158015610343573d6000803e3d6000fd5b505050508060000151837fabffe12ba282da75e3b8cabf04d06ed581c748d27330c3e37bb7c3885cc2daca8460405161037e91815260200190565b60405180910390a3505050565b6000806040838503121561039e57600080fd5b50508035926020909101359150565b6000602082840312156103bf57600080fd5b5035919050565b6000602082840312156103d857600080fd5b505191905056fea26469706673582212204a641b9c8667a377a2005cec431f7599bdbfbb55ed532546f1b15c9a178d96c764736f6c63430008180033",
  "linkReferences": {},
  "deployedLinkReferences": {}
}