{
  "_format": "hh-sol-artifact-1",
  "contractName": "Voting",
  "sourceName": "contracts/Voting.sol",
  "abi": [
    {
      "inputs": [
        {
          "internalType": "address",
          "name": "semaphoreAddress",
          "type": "address"
        },
        {
          "internalType": "address",
          "name": "groupManagerAddress",
          "type": "address"
        }
      ],
      "stateMutability": "nonpayable",
      "type": "constructor"
    },
    {
      "inputs": [],
      "name": "ElectionAlreadyExists",
      "type": "error"
    },
    {
      "inputs": [],
      "name": "ElectionNotActive",
      "type": "error"
    },
    {
      "inputs": [],
      "name": "ElectionNotFound",
      "type": "error"
    },
    {
      "inputs": [],
      "name": "InvalidCandidate",
      "type": "error"
    },
    {
      "inputs": [],
      "name": "NotOwner",
      "type": "error"
    },
    {
      "inputs": [],
      "name": "NullifierAlreadyUsed",
      "type": "error"
    },
    {
      "anonymous": false,
      "inputs": [
        {
          "indexed": true,
          "internalType": "uint256",
          "name": "electionId",
          "type": "uint256"
        },
        {
          "indexed": true,
          "internalType": "uint256",
          "name": "candidateId",
          "type": "uint256"
        },
        {
          "indexed": false,
          "internalType": "string",
          "name": "name",
          "type": "string"
        },
        {
          "indexed": false,
          "internalType": "string",
          "name": "image",
          "type": "string"
        }
      ],
      "name": "CandidateAdded",
      "type": "event"
    },
    {
      "anonymous": false,
      "inputs": [
        {
          "indexed": true,
          "internalType": "uint256",
          "name": "electionId",
          "type": "uint256"
        },
        {
          "indexed": true,
          "internalType": "uint256",
          "name": "groupId",
          "type": "uint256"
        },
        {
          "indexed": false,
          "internalType": "uint256",
          "name": "externalNullifier",
          "type": "uint256"
        },
        {
          "indexed": false,
          "internalType": "uint64",
          "name": "startsAt",
          "type": "uint64"
        },
        {
          "indexed": false,
          "internalType": "uint64",
          "name": "endsAt",
          "type": "uint64"
        },
        {
          "indexed": true,
          "internalType": "address",
          "name": "owner",
          "type": "address"
        },
        {
          "indexed": false,
          "internalType": "bool",
          "name": "isPublic",
          "type": "bool"
        }
      ],
      "name": "ElectionCreated",
      "type": "event"
    },
    {
      "anonymous": false,
      "inputs": [
        {
          "indexed": true,
          "internalType": "uint256",
          "name": "electionId",
          "type": "uint256"
        },
        {
          "indexed": true,
          "internalType": "uint256",
          "name": "candidateId",
          "type": "uint256"
        },
        {
          "indexed": false,
          "internalType": "uint256",
          "name": "nullifier",
          "type": "uint256"
        },
        {
          "indexed": false,
          "internalType": "uint256",
          "name": "message",
          "type": "uint256"
        }
      ],
      "name": "VoteCast",
      "type": "event"
    },
    {
      "inputs": [
        {
          "internalType": "uint256",
          "name": "electionId",
          "type": "uint256"
        },
        {
          "internalType": "string",
          "name": "name",
          "type": "string"
        },
        {
          "internalType": "string",
          "name": "image",
          "type": "string"
        }
      ],
      "name": "addCandidate",
      "outputs": [],
      "stateMutability": "nonpayable",
      "type": "function"
    },
    {
      "inputs": [
        {
          "internalType": "uint256",
          "name": "electionId",
          "type": "uint256"
        },
        {
          "internalType": "string[]",
          "name": "names",
          "type": "string[]"
        },
        {
          "internalType": "string[]",
          "name": "images",
          "type": "string[]"
        }
      ],
      "name": "addCandidates",
      "outputs": [],
      "stateMutability": "nonpayable",
      "type": "function"
    },
    {
      "inputs": [
        {
          "internalType": "uint256",
          "name": "electionId",
          "type": "uint256"
        },
        {
          "internalType": "uint256",
          "name": "candidateId",
          "type": "uint256"
        },
        {
          "components": [
            {
              "internalType": "uint256",
              "name": "merkleTreeDepth",
              "type": "uint256"
            },
            {
              "internalType": "uint256",
              "name": "merkleTreeRoot",
              "type": "uint256"
            },
            {
              "internalType": "uint256",
              "name": "nullifier",
              "type": "uint256"
            },
            {
              "internalType": "uint256",
              "name": "message",
              "type": "uint256"
            },
            {
              "internalType": "uint256",
              "name": "scope",
              "type": "uint256"
            },
            {
              "internalType": "uint256[8]",
              "name": "points",
              "type": "uint256[8]"
            }
          ],
          "internalType": "struct SemaphoreProof",
          "name": "proof",
          "type": "tuple"
        }
      ],
      "name": "castVote",
      "outputs": [],
      "stateMutability": "nonpayable",
      "type": "function"
    },
    {
      "inputs": [
        {
          "internalType": "uint256",
          "name": "electionId",
          "type": "uint256"
        },
        {
          "internalType": "uint256",
          "name": "groupId",
          "type": "uint256"
        },
        {
          "internalType": "uint256",
          "name": "externalNullifier",
          "type": "uint256"
        },
        {
          "internalType": "uint64",
          "name": "startsAt",
          "type": "uint64"
        },
        {
          "internalType": "uint64",
          "name": "endsAt",
          "type": "uint64"
        },
        {
          "internalType": "bool",
          "name": "isPublic",
          "type": "bool"
        }
      ],
      "name": "createElection",
      "outputs": [],
      "stateMutability": "nonpayable",
      "type": "function"
    },
    {
      "inputs": [
        {
          "internalType": "uint256",
          "name": "",
          "type": "uint256"
        },
        {
          "internalType": "uint256",
          "name": "",
          "type": "uint256"
        }
      ],
      "name": "electionCandidates",
      "outputs": [
        {
          "internalType": "uint256",
          "name": "id",
          "type": "uint256"
        },
        {
          "internalType": "string",
          "name": "name",
          "type": "string"
        },
        {
          "internalType": "string",
          "name": "image",
          "type": "string"
        },
        {
          "internalType": "uint256",
          "name": "voteCount",
          "type": "uint256"
        }
      ],
      "stateMutability": "view",
      "type": "function"
    },
    {
      "inputs": [
        {
          "internalType": "uint256",
          "name": "",
          "type": "uint256"
        }
      ],
      "name": "elections",
      "outputs": [
        {
          "internalType": "uint256",
          "name": "id",
          "type": "uint256"
        },
        {
          "internalType": "uint256",
          "name": "groupId",
          "type": "uint256"
        },
        {
          "internalType": "uint256",
          "name": "externalNullifier",
          "type": "uint256"
        },
        {
          "internalType": "uint64",
          "name": "startsAt",
          "type": "uint64"
        },
        {
          "internalType": "uint64",
          "name": "endsAt",
          "type": "uint64"
        },
        {
          "internalType": "address",
          "name": "owner",
          "type": "address"
        },
        {
          "internalType": "bool",
          "name": "isPublic",
          "type": "bool"
        },
        {
          "internalType": "bool",
          "name": "exists",
          "type": "bool"
        }
      ],
      "stateMutability": "view",
      "type": "function"
    },
    {
      "inputs": [
        {
          "internalType": "uint256",
          "name": "electionId",
          "type": "uint256"
        }
      ],
      "name": "getCandidates",
      "outputs": [
        {
          "components": [
            {
              "internalType": "uint256",
              "name": "id",
              "type": "uint256"
            },
            {
              "internalType": "string",
              "name": "name",
              "type": "string"
            },
            {
              "internalType": "string",
              "name": "image",
              "type": "string"
            },
            {
              "internalType": "uint256",
              "name": "voteCount",
              "type": "uint256"
            }
          ],
          "internalType": "struct Voting.Candidate[]",
          "name": "",
          "type": "tuple[]"
        }
      ],
      "stateMutability": "view",
      "type": "function"
    },
    {
      "inputs": [
        {
          "internalType": "uint256",
          "name": "electionId",
          "type": "uint256"
        },
        {
          "internalType": "uint256",
          "name": "candidateId",
          "type": "uint256"
        }
      ],
      "name": "getVoteCount",
      "outputs": [
        {
          "internalType": "uint256",
          "name": "",
          "type": "uint256"
        }
      ],
      "stateMutability": "view",
      "type": "function"
    },
    {
      "inputs": [],
      "name": "groupManager",
      "outputs": [
        {
          "internalType": "contract GroupManager",
          "name": "",
          "type": "address"
        }
      ],
      "stateMutability": "view",
      "type": "function"
    },
    {
      "inputs": [
        {
          "internalType": "uint256",
          "name": "electionId",
          "type": "uint256"
        }
      ],
      "name": "isElectionPublic",
      "outputs": [
        {
          "internalType": "bool",
          "name": "",
          "type": "bool"
        }
      ],
      "stateMutability": "view",
      "type": "function"
    },
    {
      "inputs": [
        {
          "internalType": "uint256",
          "name": "",
          "type": "uint256"
        }
      ],
      "name": "nullifierUsed",
      "outputs": [
        {
          "internalType": "bool",
          "name": "",
          "type": "bool"
        }
      ],
      "stateMutability": "view",
      "type": "function"
    },
    {
      "inputs": [],
      "name": "semaphore",
      "outputs": [
        {
          "internalType": "contract ISemaphore",
          "name": "",
          "type": "address"
        }
      ],
      "stateMutability": "view",
      "type": "function"
    }
  ],
  "bytecode": "0x60c060405234801561001057600080fd5b50604051620016ff380380620016ff83398101604081905261003191610064565b6001600160a01b039182166080521660a052610097565b80516001600160a01b038116811461005f57600080fd5b919050565b6000806040838503121561007757600080fd5b61008083610048565b915061008e60208401610048565b90509250929050565b60805160a05161163b620000c4600039600061027a0152600081816101f201526104f7015261163b6000f3fe608060405234801561001057600080fd5b50600436106100b45760003560e01c8063a42c56f711610071578063a42c56f71461023f578063a94b189c14610262578063b26bc48314610275578063cfb43fdb1461029c578063de2e19a0146102c9578063e6c62efc146102ea57600080fd5b80630d2ce1ca146100b95780633e39a7a5146100ce5780635e6fef01146100f757806379f95ee9146101ba5780637b5d2534146101ed578063838fbc001461022c575b600080fd5b6100cc6100c7366004610fb2565b6102fd565b005b6100e16100dc366004610ff5565b610614565b6040516100ee9190611054565b60405180910390f35b610168610105366004610ff5565b600060208190529081526040902080546001820154600283015460038401546004909401549293919290916001600160401b0380821692600160401b90920416906001600160a01b0381169060ff600160a01b8204811691600160a81b90041688565b604080519889526020890197909752958701949094526001600160401b039283166060870152911660808501526001600160a01b031660a0840152151560c0830152151560e0820152610100016100ee565b6101dd6101c8366004610ff5565b60026020526000908152604090205460ff1681565b60405190151581526020016100ee565b6102147f000000000000000000000000000000000000000000000000000000000000000081565b6040516001600160a01b0390911681526020016100ee565b6100cc61023a366004611245565b6107be565b61025261024d3660046112b1565b610a22565b6040516100ee94939291906112d3565b6100cc61027036600461132c565b610b7f565b6102147f000000000000000000000000000000000000000000000000000000000000000081565b6101dd6102aa366004610ff5565b600090815260208190526040902060040154600160a01b900460ff1690565b6102dc6102d73660046112b1565b610d80565b6040519081526020016100ee565b6100cc6102f8366004611394565b610df0565b600083815260208181526040918290208251610100810184528154815260018201549281019290925260028101549282019290925260038201546001600160401b038082166060840152600160401b9091041660808201526004909101546001600160a01b03811660a083015260ff600160a01b82048116151560c0840152600160a81b90910416151560e082018190526103ab576040516305ce45f760e51b815260040160405180910390fd5b6103b481610f30565b6103d157604051638744898560e01b815260040160405180910390fd5b60408083013560009081526002602052205460ff161561040457604051636569570160e11b815260040160405180910390fd5b82158061041e575060008481526001602052604090205483115b1561043c5760405163e66ea08f60e01b815260040160405180910390fd5b80604001518260800135146104885760405162461bcd60e51b815260206004820152600d60248201526c496e76616c69642073636f706560981b60448201526064015b60405180910390fd5b828260600135146104db5760405162461bcd60e51b815260206004820152601e60248201527f4d657373616765206d757374206d617463682063616e64696461746549640000604482015260640161047f565b602081015160405163d0d898dd60e01b81526001600160a01b037f0000000000000000000000000000000000000000000000000000000000000000169163d0d898dd9161052d919086906004016113f6565b600060405180830381600087803b15801561054757600080fd5b505af115801561055b573d6000803e3d6000fd5b50505050604080830135600090815260026020908152828220805460ff1916600190811790915587835290819052919020610596828661145a565b815481106105a6576105a661146d565b906000526020600020906004020160030160008282546105c69190611483565b90915550506040805181840135815260608401356020820152849186917f2327a15d67e277c37565fa2884c3b26a1013ceff86bc0214b280225ba1be19a7910160405180910390a350505050565b606060016000838152602001908152602001600020805480602002602001604051908101604052809291908181526020016000905b828210156107b357838290600052602060002090600402016040518060800160405290816000820154815260200160018201805461068690611496565b80601f01602080910402602001604051908101604052809291908181526020018280546106b290611496565b80156106ff5780601f106106d4576101008083540402835291602001916106ff565b820191906000526020600020905b8154815290600101906020018083116106e257829003601f168201915b5050505050815260200160028201805461071890611496565b80601f016020809104026020016040519081016040528092919081815260200182805461074490611496565b80156107915780601f1061076657610100808354040283529160200191610791565b820191906000526020600020905b81548152906001019060200180831161077457829003601f168201915b5050505050815260200160038201548152505081526020019060010190610649565b505050509050919050565b60008381526020819052604090206004810154600160a81b900460ff166107f8576040516305ce45f760e51b815260040160405180910390fd5b60048101546001600160a01b03163314610825576040516330cd747160e01b815260040160405180910390fd5b815183511461086f5760405162461bcd60e51b8152602060048201526016602482015275082e4e4c2f2e640d8cadccee8d040dad2e6dac2e8c6d60531b604482015260640161047f565b60008351116108c05760405162461bcd60e51b815260206004820152601f60248201527f4d75737420616464206174206c65617374206f6e652063616e64696461746500604482015260640161047f565b60005b8351811015610a1b5760008581526001602081905260408220546108e691611483565b905060016000878152602001908152602001600020604051806080016040528083815260200187858151811061091e5761091e61146d565b6020026020010151815260200186858151811061093d5761093d61146d565b6020908102919091018101518252600091810182905283546001818101865594835291819020835160049093020191825582015191929091908201906109839082611521565b50604082015160028201906109989082611521565b5060608201518160030155505080867f503cfceb0fb2178c5fb47ff394c816e4075abc8066c3dcb16d08a76847ee6e168785815181106109da576109da61146d565b60200260200101518786815181106109f4576109f461146d565b6020026020010151604051610a0a9291906115e0565b60405180910390a3506001016108c3565b5050505050565b60016020528160005260406000208181548110610a3e57600080fd5b906000526020600020906004020160009150915050806000015490806001018054610a6890611496565b80601f0160208091040260200160405190810160405280929190818152602001828054610a9490611496565b8015610ae15780601f10610ab657610100808354040283529160200191610ae1565b820191906000526020600020905b815481529060010190602001808311610ac457829003601f168201915b505050505090806002018054610af690611496565b80601f0160208091040260200160405190810160405280929190818152602001828054610b2290611496565b8015610b6f5780601f10610b4457610100808354040283529160200191610b6f565b820191906000526020600020905b815481529060010190602001808311610b5257829003601f168201915b5050505050908060030154905084565b600086815260208190526040902060040154600160a81b900460ff1615610bb9576040516339136f8360e21b815260040160405180910390fd5b604051806101000160405280878152602001868152602001858152602001846001600160401b03168152602001836001600160401b03168152602001336001600160a01b0316815260200182151581526020016001151581525060008088815260200190815260200160002060008201518160000155602082015181600101556040820151816002015560608201518160030160006101000a8154816001600160401b0302191690836001600160401b0316021790555060808201518160030160086101000a8154816001600160401b0302191690836001600160401b0316021790555060a08201518160040160006101000a8154816001600160a01b0302191690836001600160a01b0316021790555060c08201518160040160146101000a81548160ff02191690831515021790555060e08201518160040160156101000a81548160ff021916908315150217905550905050336001600160a01b031685877f07a335310f2550b70af2bd68c88d5d62551a5eaf5263a7beb692aee7d151252187878787604051610d7094939291909384526001600160401b039283166020850152911660408301521515606082015260800190565b60405180910390a4505050505050565b6000811580610d9c575060008381526001602052604090205482115b15610da957506000610dea565b600083815260016020819052604090912090610dc5908461145a565b81548110610dd557610dd561146d565b90600052602060002090600402016003015490505b92915050565b60008381526020819052604090206004810154600160a81b900460ff16610e2a576040516305ce45f760e51b815260040160405180910390fd5b60048101546001600160a01b03163314610e57576040516330cd747160e01b815260040160405180910390fd5b6000848152600160208190526040822054610e7191611483565b600086815260016020818152604080842081516080810183528681528084018b81529281018a90526060810186905281548086018355918652929094208251600490950201938455519394509290820190610ecc9082611521565b5060408201516002820190610ee19082611521565b5060608201518160030155505080857f503cfceb0fb2178c5fb47ff394c816e4075abc8066c3dcb16d08a76847ee6e168686604051610f219291906115e0565b60405180910390a35050505050565b6060810151600090429082906001600160401b03161580610f67575083606001516001600160401b0316826001600160401b031610155b9050600084608001516001600160401b031660001480610f9d575084608001516001600160401b0316836001600160401b031611155b9050818015610fa95750805b95945050505050565b60008060008385036101e0811215610fc957600080fd5b84359350602085013592506101a0603f1982011215610fe757600080fd5b506040840190509250925092565b60006020828403121561100757600080fd5b5035919050565b6000815180845260005b8181101561103457602081850181015186830182015201611018565b506000602082860101526020601f19601f83011685010191505092915050565b600060208083018184528085518083526040925060408601915060408160051b87010184880160005b838110156110e457603f19898403018552815160808151855288820151818a8701526110ab8287018261100e565b91505087820151858203898701526110c3828261100e565b6060938401519690930195909552509487019492509086019060010161107d565b509098975050505050505050565b634e487b7160e01b600052604160045260246000fd5b604051601f8201601f191681016001600160401b0381118282101715611130576111306110f2565b604052919050565b600082601f83011261114957600080fd5b81356001600160401b03811115611162576111626110f2565b611175601f8201601f1916602001611108565b81815284602083860101111561118a57600080fd5b816020850160208301376000918101602001919091529392505050565b600082601f8301126111b857600080fd5b813560206001600160401b03808311156111d4576111d46110f2565b8260051b6111e3838201611108565b93845285810183019383810190888611156111fd57600080fd5b84880192505b858310156112395782358481111561121b5760008081fd5b6112298a87838c0101611138565b8352509184019190840190611203565b98975050505050505050565b60008060006060848603121561125a57600080fd5b8335925060208401356001600160401b038082111561127857600080fd5b611284878388016111a7565b9350604086013591508082111561129a57600080fd5b506112a7868287016111a7565b9150509250925092565b600080604083850312156112c457600080fd5b50508035926020909101359150565b8481526080602082015260006112ec608083018661100e565b82810360408401526112fe818661100e565b91505082606083015295945050505050565b80356001600160401b038116811461132757600080fd5b919050565b60008060008060008060c0878903121561134557600080fd5b86359550602087013594506040870135935061136360608801611310565b925061137160808801611310565b915060a0870135801515811461138657600080fd5b809150509295509295509295565b6000806000606084860312156113a957600080fd5b8335925060208401356001600160401b03808211156113c757600080fd5b6113d387838801611138565b935060408601359150808211156113e957600080fd5b506112a786828701611138565b60006101c08201905083825282356020830152602083013560408301526040830135606083015260608301356080830152608083013560a083015261010060a0840160c08401379392505050565b634e487b7160e01b600052601160045260246000fd5b81810381811115610dea57610dea611444565b634e487b7160e01b600052603260045260246000fd5b80820180821115610dea57610dea611444565b600181811c908216806114aa57607f821691505b6020821081036114ca57634e487b7160e01b600052602260045260246000fd5b50919050565b601f82111561151c576000816000526020600020601f850160051c810160208610156114f95750805b601f850160051c820191505b8181101561151857828155600101611505565b5050505b505050565b81516001600160401b0381111561153a5761153a6110f2565b61154e816115488454611496565b846114d0565b602080601f831160018114611583576000841561156b5750858301515b600019600386901b1c1916600185901b178555611518565b600085815260208120601f198616915b828110156115b257888601518255948401946001909101908401611593565b50858210156115d05787850151600019600388901b60f8161c191681555b5050505050600190811b01905550565b6040815260006115f3604083018561100e565b8281036020840152610fa9818561100e56fea2646970667358221220515894fb218adb52a38ee3ce9224636d28d912747df6d49f97d95c8c42af3d8a64736f6c63430008180033",
  "linkReferences": {},
  "deployedLinkReferences": {}
}