{
  "_format": "hh-sol-artifact-1",
  "contractName": "Voting",
  "sourceName": "contracts/Voting.sol",
  "abi": [
    {
      "inputs": [
        {
          "internalType": "address",
          "name": "semaphoreAddress",
          "type": "address"
        },
        {
          "internalType": "address",
          "name": "groupManagerAddress",
          "type": "address"
        }
      ],
      "stateMutability": "nonpayable",
      "type": "constructor"
    },
    {
      "inputs": [],
      "name": "ElectionAlreadyExists",
      "type": "error"
    },
    {
      "inputs": [],
      "name": "ElectionNotActive",
      "type": "error"
    },
    {
      "inputs": [],
      "name": "ElectionNotFound",
      "type": "error"
    },
    {
      "inputs": [],
      "name": "InvalidCandidate",
      "type": "error"
    },
    {
      "inputs": [],
      "name": "NotOwner",
      "type": "error"
    },
    {
      "inputs": [],
      "name": "NullifierAlreadyUsed",
      "type": "error"
    },
    {
      "anonymous": false,
      "inputs": [
        {
          "indexed": true,
          "internalType": "uint256",
          "name": "electionId",
          "type": "uint256"
        },
        {
          "indexed": true,
          "internalType": "uint256",
          "name": "candidateId",
          "type": "uint256"
        },
        {
          "indexed": false,
          "internalType": "string",
          "name": "name",
          "type": "string"
        },
        {
          "indexed": false,
          "internalType": "string",
          "name": "image",
          "type": "string"
        }
      ],
      "name": "CandidateAdded",
      "type": "event"
    },
    {
      "anonymous": false,
      "inputs": [
        {
          "indexed": true,
          "internalType": "uint256",
          "name": "electionId",
          "type": "uint256"
        },
        {
          "indexed": true,
          "internalType": "uint256",
          "name": "groupId",
          "type": "uint256"
        },
        {
          "indexed": false,
          "internalType": "uint256",
          "name": "externalNullifier",
          "type": "uint256"
        },
        {
          "indexed": false,
          "internalType": "uint64",
          "name": "startsAt",
          "type": "uint64"
        },
        {
          "indexed": false,
          "internalType": "uint64",
          "name": "endsAt",
          "type": "uint64"
        },
        {
          "indexed": true,
          "internalType": "address",
          "name": "owner",
          "type": "address"
        },
        {
          "indexed": false,
          "internalType": "bool",
          "name": "isPublic",
          "type": "bool"
        }
      ],
      "name": "ElectionCreated",
      "type": "event"
    },
    {
      "anonymous": false,
      "inputs": [
        {
          "indexed": true,
          "internalType": "uint256",
          "name": "electionId",
          "type": "uint256"
        },
        {
          "indexed": true,
          "internalType": "uint256",
          "name": "candidateId",
          "type": "uint256"
        },
        {
          "indexed": false,
          "internalType": "uint256",
          "name": "nullifier",
          "type": "uint256"
        },
        {
          "indexed": false,
          "internalType": "uint256",
          "name": "message",
          "type": "uint256"
        }
      ],
      "name": "VoteCast",
      "type": "event"
    },
    {
      "inputs": [
        {
          "internalType": "uint256",
          "name": "electionId",
          "type": "uint256"
        },
        {
          "internalType": "string",
          "name": "name",
          "type": "string"
        },
        {
          "internalType": "string",
          "name": "image",
          "type": "string"
        }
      ],
      "name": "addCandidate",
      "outputs": [],
      "stateMutability": "nonpayable",
      "type": "function"
    },
    {
      "inputs": [
        {
          "internalType": "uint256",
          "name": "electionId",
          "type": "uint256"
        },
        {
          "internalType": "uint256",
          "name": "candidateId",
          "type": "uint256"
        },
        {
          "components": [
            {
              "internalType": "uint256",
              "name": "merkleTreeDepth",
              "type": "uint256"
            },
            {
              "internalType": "uint256",
              "name": "merkleTreeRoot",
              "type": "uint256"
            },
            {
              "internalType": "uint256",
              "name": "nullifier",
              "type": "uint256"
            },
            {
              "internalType": "uint256",
              "name": "message",
              "type": "uint256"
            },
            {
              "internalType": "uint256",
              "name": "scope",
              "type": "uint256"
            },
            {
              "internalType": "uint256[8]",
              "name": "points",
              "type": "uint256[8]"
            }
          ],
          "internalType": "struct SemaphoreProof",
          "name": "proof",
          "type": "tuple"
        }
      ],
      "name": "castVote",
      "outputs": [],
      "stateMutability": "nonpayable",
      "type": "function"
    },
    {
      "inputs": [
        {
          "internalType": "uint256",
          "name": "electionId",
          "type": "uint256"
        },
        {
          "internalType": "uint256",
          "name": "groupId",
          "type": "uint256"
        },
        {
          "internalType": "uint256",
          "name": "externalNullifier",
          "type": "uint256"
        },
        {
          "internalType": "uint64",
          "name": "startsAt",
          "type": "uint64"
        },
        {
          "internalType": "uint64",
          "name": "endsAt",
          "type": "uint64"
        },
        {
          "internalType": "bool",
          "name": "isPublic",
          "type": "bool"
        }
      ],
      "name": "createElection",
      "outputs": [],
      "stateMutability": "nonpayable",
      "type": "function"
    },
    {
      "inputs": [
        {
          "internalType": "uint256",
          "name": "",
          "type": "uint256"
        },
        {
          "internalType": "uint256",
          "name": "",
          "type": "uint256"
        }
      ],
      "name": "electionCandidates",
      "outputs": [
        {
          "internalType": "uint256",
          "name": "id",
          "type": "uint256"
        },
        {
          "internalType": "string",
          "name": "name",
          "type": "string"
        },
        {
          "internalType": "string",
          "name": "image",
          "type": "string"
        },
        {
          "internalType": "uint256",
          "name": "voteCount",
          "type": "uint256"
        }
      ],
      "stateMutability": "view",
      "type": "function"
    },
    {
      "inputs": [
        {
          "internalType": "uint256",
          "name": "",
          "type": "uint256"
        }
      ],
      "name": "elections",
      "outputs": [
        {
          "internalType": "uint256",
          "name": "id",
          "type": "uint256"
        },
        {
          "internalType": "uint256",
          "name": "groupId",
          "type": "uint256"
        },
        {
          "internalType": "uint256",
          "name": "externalNullifier",
          "type": "uint256"
        },
        {
          "internalType": "uint64",
          "name": "startsAt",
          "type": "uint64"
        },
        {
          "internalType": "uint64",
          "name": "endsAt",
          "type": "uint64"
        },
        {
          "internalType": "address",
          "name": "owner",
          "type": "address"
        },
        {
          "internalType": "bool",
          "name": "isPublic",
          "type": "bool"
        },
        {
          "internalType": "bool",
          "name": "exists",
          "type": "bool"
        }
      ],
      "stateMutability": "view",
      "type": "function"
    },
    {
      "inputs": [
        {
          "internalType": "uint256",
          "name": "electionId",
          "type": "uint256"
        }
      ],
      "name": "getCandidates",
      "outputs": [
        {
          "components": [
            {
              "internalType": "uint256",
              "name": "id",
              "type": "uint256"
            },
            {
              "internalType": "string",
              "name": "name",
              "type": "string"
            },
            {
              "internalType": "string",
              "name": "image",
              "type": "string"
            },
            {
              "internalType": "uint256",
              "name": "voteCount",
              "type": "uint256"
            }
          ],
          "internalType": "struct Voting.Candidate[]",
          "name": "",
          "type": "tuple[]"
        }
      ],
      "stateMutability": "view",
      "type": "function"
    },
    {
      "inputs": [
        {
          "internalType": "uint256",
          "name": "electionId",
          "type": "uint256"
        },
        {
          "internalType": "uint256",
          "name": "candidateId",
          "type": "uint256"
        }
      ],
      "name": "getVoteCount",
      "outputs": [
        {
          "internalType": "uint256",
          "name": "",
          "type": "uint256"
        }
      ],
      "stateMutability": "view",
      "type": "function"
    },
    {
      "inputs": [],
      "name": "groupManager",
      "outputs": [
        {
          "internalType": "contract GroupManager",
          "name": "",
          "type": "address"
        }
      ],
      "stateMutability": "view",
      "type": "function"
    },
    {
      "inputs": [
        {
          "internalType": "uint256",
          "name": "electionId",
          "type": "uint256"
        }
      ],
      "name": "isElectionPublic",
      "outputs": [
        {
          "internalType": "bool",
          "name": "",
          "type": "bool"
        }
      ],
      "stateMutability": "view",
      "type": "function"
    },
    {
      "inputs": [
        {
          "internalType": "uint256",
          "name": "",
          "type": "uint256"
        }
      ],
      "name": "nullifierUsed",
      "outputs": [
        {
          "internalType": "bool",
          "name": "",
          "type": "bool"
        }
      ],
      "stateMutability": "view",
      "type": "function"
    },
    {
      "inputs": [],
      "name": "semaphore",
      "outputs": [
        {
          "internalType": "contract ISemaphore",
          "name": "",
          "type": "address"
        }
      ],
      "stateMutability": "view",
      "type": "function"
    }
  ],
  "bytecode": "0x60c060405234801561001057600080fd5b5060405161136738038061136783398101604081905261002f91610062565b6001600160a01b039182166080521660a052610095565b80516001600160a01b038116811461005d57600080fd5b919050565b6000806040838503121561007557600080fd5b61007e83610046565b915061008c60208401610046565b90509250929050565b60805160a0516112a66100c1600039600061025c0152600081816101e701526104d901526112a66000f3fe608060405234801561001057600080fd5b50600436106100a95760003560e01c8063a42c56f711610071578063a42c56f714610221578063a94b189c14610244578063b26bc48314610257578063cfb43fdb1461027e578063de2e19a0146102ab578063e6c62efc146102cc57600080fd5b80630d2ce1ca146100ae5780633e39a7a5146100c35780635e6fef01146100ec57806379f95ee9146101af5780637b5d2534146101e2575b600080fd5b6100c16100bc366004610d30565b6102df565b005b6100d66100d1366004610d73565b6105f6565b6040516100e39190610dd2565b60405180910390f35b61015d6100fa366004610d73565b600060208190529081526040902080546001820154600283015460038401546004909401549293919290916001600160401b0380821692600160401b90920416906001600160a01b0381169060ff600160a01b8204811691600160a81b90041688565b604080519889526020890197909752958701949094526001600160401b039283166060870152911660808501526001600160a01b031660a0840152151560c0830152151560e0820152610100016100e3565b6101d26101bd366004610d73565b60026020526000908152604090205460ff1681565b60405190151581526020016100e3565b6102097f000000000000000000000000000000000000000000000000000000000000000081565b6040516001600160a01b0390911681526020016100e3565b61023461022f366004610e70565b6107a0565b6040516100e39493929190610e92565b6100c1610252366004610eeb565b6108fd565b6102097f000000000000000000000000000000000000000000000000000000000000000081565b6101d261028c366004610d73565b600090815260208190526040902060040154600160a01b900460ff1690565b6102be6102b9366004610e70565b610afe565b6040519081526020016100e3565b6100c16102da366004610ff5565b610b6e565b600083815260208181526040918290208251610100810184528154815260018201549281019290925260028101549282019290925260038201546001600160401b038082166060840152600160401b9091041660808201526004909101546001600160a01b03811660a083015260ff600160a01b82048116151560c0840152600160a81b90910416151560e0820181905261038d576040516305ce45f760e51b815260040160405180910390fd5b61039681610cae565b6103b357604051638744898560e01b815260040160405180910390fd5b60408083013560009081526002602052205460ff16156103e657604051636569570160e11b815260040160405180910390fd5b821580610400575060008481526001602052604090205483115b1561041e5760405163e66ea08f60e01b815260040160405180910390fd5b806040015182608001351461046a5760405162461bcd60e51b815260206004820152600d60248201526c496e76616c69642073636f706560981b60448201526064015b60405180910390fd5b828260600135146104bd5760405162461bcd60e51b815260206004820152601e60248201527f4d657373616765206d757374206d617463682063616e646964617465496400006044820152606401610461565b602081015160405163d0d898dd60e01b81526001600160a01b037f0000000000000000000000000000000000000000000000000000000000000000169163d0d898dd9161050f91908690600401611061565b600060405180830381600087803b15801561052957600080fd5b505af115801561053d573d6000803e3d6000fd5b50505050604080830135600090815260026020908152828220805460ff191660019081179091558783529081905291902061057882866110c5565b81548110610588576105886110d8565b906000526020600020906004020160030160008282546105a891906110ee565b90915550506040805181840135815260608401356020820152849186917f2327a15d67e277c37565fa2884c3b26a1013ceff86bc0214b280225ba1be19a7910160405180910390a350505050565b606060016000838152602001908152602001600020805480602002602001604051908101604052809291908181526020016000905b8282101561079557838290600052602060002090600402016040518060800160405290816000820154815260200160018201805461066890611101565b80601f016020809104026020016040519081016040528092919081815260200182805461069490611101565b80156106e15780601f106106b6576101008083540402835291602001916106e1565b820191906000526020600020905b8154815290600101906020018083116106c457829003601f168201915b505050505081526020016002820180546106fa90611101565b80601f016020809104026020016040519081016040528092919081815260200182805461072690611101565b80156107735780601f1061074857610100808354040283529160200191610773565b820191906000526020600020905b81548152906001019060200180831161075657829003601f168201915b505050505081526020016003820154815250508152602001906001019061062b565b505050509050919050565b600160205281600052604060002081815481106107bc57600080fd5b9060005260206000209060040201600091509150508060000154908060010180546107e690611101565b80601f016020809104026020016040519081016040528092919081815260200182805461081290611101565b801561085f5780601f106108345761010080835404028352916020019161085f565b820191906000526020600020905b81548152906001019060200180831161084257829003601f168201915b50505050509080600201805461087490611101565b80601f01602080910402602001604051908101604052809291908181526020018280546108a090611101565b80156108ed5780601f106108c2576101008083540402835291602001916108ed565b820191906000526020600020905b8154815290600101906020018083116108d057829003601f168201915b5050505050908060030154905084565b600086815260208190526040902060040154600160a81b900460ff1615610937576040516339136f8360e21b815260040160405180910390fd5b604051806101000160405280878152602001868152602001858152602001846001600160401b03168152602001836001600160401b03168152602001336001600160a01b0316815260200182151581526020016001151581525060008088815260200190815260200160002060008201518160000155602082015181600101556040820151816002015560608201518160030160006101000a8154816001600160401b0302191690836001600160401b0316021790555060808201518160030160086101000a8154816001600160401b0302191690836001600160401b0316021790555060a08201518160040160006101000a8154816001600160a01b0302191690836001600160a01b0316021790555060c08201518160040160146101000a81548160ff02191690831515021790555060e08201518160040160156101000a81548160ff021916908315150217905550905050336001600160a01b031685877f07a335310f2550b70af2bd68c88d5d62551a5eaf5263a7beb692aee7d151252187878787604051610aee94939291909384526001600160401b039283166020850152911660408301521515606082015260800190565b60405180910390a4505050505050565b6000811580610b1a575060008381526001602052604090205482115b15610b2757506000610b68565b600083815260016020819052604090912090610b4390846110c5565b81548110610b5357610b536110d8565b90600052602060002090600402016003015490505b92915050565b60008381526020819052604090206004810154600160a81b900460ff16610ba8576040516305ce45f760e51b815260040160405180910390fd5b60048101546001600160a01b03163314610bd5576040516330cd747160e01b815260040160405180910390fd5b6000848152600160208190526040822054610bef916110ee565b600086815260016020818152604080842081516080810183528681528084018b81529281018a90526060810186905281548086018355918652929094208251600490950201938455519394509290820190610c4a908261118c565b5060408201516002820190610c5f908261118c565b5060608201518160030155505080857f503cfceb0fb2178c5fb47ff394c816e4075abc8066c3dcb16d08a76847ee6e168686604051610c9f92919061124b565b60405180910390a35050505050565b6060810151600090429082906001600160401b03161580610ce5575083606001516001600160401b0316826001600160401b031610155b9050600084608001516001600160401b031660001480610d1b575084608001516001600160401b0316836001600160401b031611155b9050818015610d275750805b95945050505050565b60008060008385036101e0811215610d4757600080fd5b84359350602085013592506101a0603f1982011215610d6557600080fd5b506040840190509250925092565b600060208284031215610d8557600080fd5b5035919050565b6000815180845260005b81811015610db257602081850181015186830182015201610d96565b506000602082860101526020601f19601f83011685010191505092915050565b600060208083018184528085518083526040925060408601915060408160051b87010184880160005b83811015610e6257603f19898403018552815160808151855288820151818a870152610e2982870182610d8c565b9150508782015185820389870152610e418282610d8c565b60609384015196909301959095525094870194925090860190600101610dfb565b509098975050505050505050565b60008060408385031215610e8357600080fd5b50508035926020909101359150565b848152608060208201526000610eab6080830186610d8c565b8281036040840152610ebd8186610d8c565b91505082606083015295945050505050565b80356001600160401b0381168114610ee657600080fd5b919050565b60008060008060008060c08789031215610f0457600080fd5b863595506020870135945060408701359350610f2260608801610ecf565b9250610f3060808801610ecf565b915060a08701358015158114610f4557600080fd5b809150509295509295509295565b634e487b7160e01b600052604160045260246000fd5b600082601f830112610f7a57600080fd5b81356001600160401b0380821115610f9457610f94610f53565b604051601f8301601f19908116603f01168101908282118183101715610fbc57610fbc610f53565b81604052838152866020858801011115610fd557600080fd5b836020870160208301376000602085830101528094505050505092915050565b60008060006060848603121561100a57600080fd5b8335925060208401356001600160401b038082111561102857600080fd5b61103487838801610f69565b9350604086013591508082111561104a57600080fd5b5061105786828701610f69565b9150509250925092565b60006101c08201905083825282356020830152602083013560408301526040830135606083015260608301356080830152608083013560a083015261010060a0840160c08401379392505050565b634e487b7160e01b600052601160045260246000fd5b81810381811115610b6857610b686110af565b634e487b7160e01b600052603260045260246000fd5b80820180821115610b6857610b686110af565b600181811c9082168061111557607f821691505b60208210810361113557634e487b7160e01b600052602260045260246000fd5b50919050565b601f821115611187576000816000526020600020601f850160051c810160208610156111645750805b601f850160051c820191505b8181101561118357828155600101611170565b5050505b505050565b81516001600160401b038111156111a5576111a5610f53565b6111b9816111b38454611101565b8461113b565b602080601f8311600181146111ee57600084156111d65750858301515b600019600386901b1c1916600185901b178555611183565b600085815260208120601f198616915b8281101561121d578886015182559484019460019091019084016111fe565b508582101561123b5787850151600019600388901b60f8161c191681555b5050505050600190811b01905550565b60408152600061125e6040830185610d8c565b8281036020840152610d278185610d8c56fea264697066735822122076b17a6b03dadc6d4a85ddde710acbc7e0203fbd1b2566b641086d0f5b07d23764736f6c63430008180033",
  "linkReferences": {},
  "deployedLinkReferences": {}
}